{
  "contractName": "SetElection",
  "abi": [
    {
      "inputs": [
        {
          "internalType": "string",
          "name": "_title",
          "type": "string"
        }
      ],
      "payable": false,
      "stateMutability": "nonpayable",
      "type": "constructor"
    },
    {
      "constant": true,
      "inputs": [],
      "name": "title",
      "outputs": [
        {
          "internalType": "string",
          "name": "",
          "type": "string"
        }
      ],
      "payable": false,
      "stateMutability": "view",
      "type": "function"
    },
    {
      "constant": false,
      "inputs": [
        {
          "internalType": "string",
          "name": "_title",
          "type": "string"
        }
      ],
      "name": "setGreeting",
      "outputs": [],
      "payable": false,
      "stateMutability": "nonpayable",
      "type": "function"
    },
    {
      "constant": true,
      "inputs": [],
      "name": "say",
      "outputs": [
        {
          "internalType": "string",
          "name": "",
          "type": "string"
        }
      ],
      "payable": false,
      "stateMutability": "view",
      "type": "function"
    }
  ],
  "bytecode": "0x608060405234801561001057600080fd5b506040516105fa3803806105fa8339818101604052602081101561003357600080fd5b810190808051604051939291908464010000000082111561005357600080fd5b8382019150602082018581111561006957600080fd5b825186600182028301116401000000008211171561008657600080fd5b8083526020830192505050908051906020019080838360005b838110156100ba57808201518184015260208101905061009f565b50505050905090810190601f1680156100e75780820380516001836020036101000a031916815260200191505b50604052505050806000908051906020019061010492919061010b565b50506101b0565b828054600181600116156101000203166002900490600052602060002090601f016020900481019282601f1061014c57805160ff191683800117855561017a565b8280016001018555821561017a579182015b8281111561017957825182559160200191906001019061015e565b5b509050610187919061018b565b5090565b6101ad91905b808211156101a9576000816000905550600101610191565b5090565b90565b61043b806101bf6000396000f3fe608060405234801561001057600080fd5b50600436106100415760003560e01c80634a79d50c14610046578063954ab4b2146100c9578063a41368621461014c575b600080fd5b61004e610207565b6040518080602001828103825283818151815260200191508051906020019080838360005b8381101561008e578082015181840152602081019050610073565b50505050905090810190601f1680156100bb5780820380516001836020036101000a031916815260200191505b509250505060405180910390f35b6100d16102a5565b6040518080602001828103825283818151815260200191508051906020019080838360005b838110156101115780820151818401526020810190506100f6565b50505050905090810190601f16801561013e5780820380516001836020036101000a031916815260200191505b509250505060405180910390f35b6102056004803603602081101561016257600080fd5b810190808035906020019064010000000081111561017f57600080fd5b82018360208201111561019157600080fd5b803590602001918460018302840111640100000000831117156101b357600080fd5b91908080601f016020809104026020016040519081016040528093929190818152602001838380828437600081840152601f19601f820116905080830192505050505050509192919290505050610347565b005b60008054600181600116156101000203166002900480601f01602080910402602001604051908101604052809291908181526020018280546001816001161561010002031660029004801561029d5780601f106102725761010080835404028352916020019161029d565b820191906000526020600020905b81548152906001019060200180831161028057829003601f168201915b505050505081565b606060008054600181600116156101000203166002900480601f01602080910402602001604051908101604052809291908181526020018280546001816001161561010002031660029004801561033d5780601f106103125761010080835404028352916020019161033d565b820191906000526020600020905b81548152906001019060200180831161032057829003601f168201915b5050505050905090565b806000908051906020019061035d929190610361565b5050565b828054600181600116156101000203166002900490600052602060002090601f016020900481019282601f106103a257805160ff19168380011785556103d0565b828001600101855582156103d0579182015b828111156103cf5782518255916020019190600101906103b4565b5b5090506103dd91906103e1565b5090565b61040391905b808211156103ff5760008160009055506001016103e7565b5090565b9056fea265627a7a723158203bacec6471a1740b35afd995568dbed02297ed40a51be4316b61404f8fc6edec64736f6c63430005100032",
  "source": "  pragma solidity >=0.4.22 <0.8.0;\r\n\r\n\r\n  contract SetElection {\r\n\r\n  string public title;\r\n  // 변수 변수의 가시성 변수명\r\n  // 문자열 모두가볼수있음, 읽기 전용임 greeting\r\n\r\n  constructor(string memory _title) public {\r\n  // 생성자, 초기화의 역할. 퍼블릭이어야 함. 프라이빗으로는 사용불가\r\n  // 패러미터에 언더바를 붙인 이유? 전통적임.\r\n    title = _title;\r\n  } \r\n  function setGreeting(string memory _title) public {\r\n\r\n    title = _title;\r\n  }\r\n\r\n  // function들은 메소드임, 내부 또는 외부에서 요출하는 함수, 여기서의 public은 외부에서도\r\n  // 호출할수 있다는 의미\r\n  // 위함수는 문자열을 읽기 위함\r\n\r\n  function say() public view returns(string memory) {\r\n    // returns : type 없는 경우는 void\r\n    return title;\r\n    // 위에서 받은 greeting 변수를 반환하는데 사용 쓰기위함.\r\n  }\r\n\r\n  }",
  "sourcePath": "C:/Users/YUN/Challenge/vote_dapp/election/contracts/SetElection.sol",
  "compiler": {
    "name": "solc",
    "version": "0.5.16+commit.9c3226ce.Emscripten.clang"
  },
  "schemaVersion": "3.4.1",
  "updatedAt": "2021-06-12T09:07:54.255Z",
  "devdoc": {
    "methods": {}
  },
  "userdoc": {
    "methods": {}
  }
}